:020000021000EC
:1080000000400020C18101000982010079E20100E5
:108010000000000000000000000000000000000060
:108020000000000000000000000000000D820100C0
:1080300000000000000000000F820100118201001A
:1080400013820100138201001382010013820100D8
:108050001382010000000000C99A0100E9C001007C
:1080600013820100138201001382010013820100B8
:1080700013820100138201001382010013820100A8
:108080002DA30100A1910100CDA0010013820100E8
:108090008D9201003D9001000984010013820100CE
:1080A00013820100138201000000000000000000A4
:1080B00000000000000000000000000000000000C0
:1080C000164B002B00D1144B9D46402292029A1A67
:1080D000924600218B460F461348144A121A00F0AC
:1080E00065F80F4B002B00D098470E4B002B00D0AB
:1080F00098470020002104000D000D48002802D000
:108100000C4800E000BF00F02DF82000290008F026
:108110005BF900F011F8C0460000080000400020A4
:10812000000000000000000070200020DC2D002076
:108130000000000000000000084B10B50400002BF8
:1081400002D0002100E000BF054B1868836A002BB5
:1081500000D09847200000F031F8C0460000000031
:108160000C2B020070B500260C4D0D4C641BA410A6
:10817000A64209D100260AF0BDFC0A4D0A4C641B38
:10818000A410A64205D170BDB300EB589847013644
:10819000EEE7B300EB5898470136F2E77020002075
:1081A0007020002070200020702000200300821822
:1081B000934200D1704719700133F9E7FEE7C046DA
:1081C00003210A4802680A430260094802680A4318
:1081D00002600849084A094B9B1A03DD043BC85852
:1081E000D050FBDC06488047064800472405004085
:1081F00054050040104402000020002070200020A0
:1082000025820100C1800100FEE7FEE7FEE7FEE7F0
:10821000FEE7FEE7014A024B1A6070470024F400B3
:1082200064200020214B1B78012B00D07047204B8D
:108230001B681B0714D11F4B1B68F022134025D16C
:10824000F0331D4A12681A420AD11C4A1C4B1A60AC
:10825000802212021B4B1A60144B1B78012BE5D1B4
:10826000134B1B681B07E1D1124B1B68F022134014
:10827000402BDBD1B033104A12681A42D6D101210B
:10828000C123DB008022D205D150CFE7102B07D0CD
:10829000302BE5D1C033084A12681A42E0D1D4E746
:1082A000E033054A12681A42DAD1CEE7E00F00F057
:1082B000E40F00F0E80F00F0EC0F00F0DFFF07C064
:1082C00004050040186C00402EDF704751DF7047F6
:1082D00010DF704711DF704761DF704710B508008D
:1082E000110006F009F810BDF0B5C64600B582B021
:1082F000234B1E78F6B2002E3ED05C686242544199
:10830000E4B29B685D425D41EDB21D4FB8460EE0A0
:1083100001A8FFF7DBFF052823D000281CD0194A4D
:10832000652105F0C7FF002D05D0002C24D1002CBD
:10833000EED0002D20D101A9BB890B803D6928001A
:10834000FFF7CAFF052813D000280CD00D4A7C2166
:1083500005F0B0FF0025EAE7094B5B6801989847F4
:10836000E1E73400DFE7280043469B689847F1E7E0
:10837000002C01D13500DAE702B004BC9046F0BD14
:1083800070200020102B020070B50400002914D0CA
:1083900007208D0700D070BD0948016182814361CB
:1083A00008492000FFF794FF0028F4D10122044B74
:1083B0001A701630FFF788FFEDE70720EBE7C0469D
:1083C00070200020DD82010010B5FFF783FF03005D
:1083D0005A1E9341DBB2014A137010BD7020002079
:1083E000002803D0024B9860002070470E20FCE765
:1083F00070200020002803D0024B586000207047F6
:108400000E20FCE77020002010B5084B5B69002BA4
:1084100009D09847002800D110BD054A2A21FF3114
:1084200005F048FFF8E7FFF75FFFF5E77020002051
:10843000102B020072DF704779DF70477DDF7047D5
:1084400065DF7047F0B5DE4657464E464546E0B517
:1084500085B00600009191469B460E9B98461B787E
:1084600001930388002B54DD00239A46002402ABBD
:10847000DD1C1DE0931C41460B700132D2B25B46FD
:1084800069460978995443461A785A44290003A842
:10849000FFF7D6FF002828D143461B782A789B187F
:1084A0004246137001239A4601343388A3421EDDED
:1084B000A10073689C466144042203A809F0C9FE28
:1084C0000022290003A8FFF7BBFF071E19D12B7854
:1084D0004B45E9D15246002A1DD142461278D318A5
:1084E00002331F2BC6DD0C270BE0070009E05346C3
:1084F000002B06D043461B78013B019A9B1A594634
:108500008B54380005B03CBC90469946A246AB4619
:10851000F0BD0027F5E742461278D3181F2BB2DDD5
:108520000C27EEE770B582B0040016001D00069B14
:1085300000932B000222FFF785FF002801D002B034
:1085400070BD069B00932B00102231002000FFF726
:1085500079FFF4E7F0B5D6464F464646C0B584B03D
:1085600005000E001400002313700378002B22D1A5
:108570008378002B4BD1EB78002B0ED023785A1C3C
:1085800022700222F25423785A1C22700122F254E3
:1085900023785A1C2270EA78F2546B68002B68D05A
:1085A0002278D11C0C201F2954DD04B01CBC90463D
:1085B0009946A246F0BD437802330C201F2BF4DC11
:1085C0000E2169441D230B80B01CFFF737FF0028E4
:1085D000EBD12B78022B36D06B78002B03D09BB2DB
:1085E00008211D2B03D90E236B441B880821DBB205
:1085F0005A1C32707170227802329B18DBB22370E1
:10860000AA78002AB7D004330C201F2BCDDC0E2013
:108610006844FFF711FF0028C7D123785A1C227045
:108620000322F25423785A1C22701922F2540E238A
:108630006B441A882378F3181A70120A5A70237838
:108640000233237097E70C336B441B8809211D2BE1
:10865000CDD9C1E700215956531C23700223B354CE
:1086600023785A1C22700A22F25423785A1C227052
:10867000F1542B89002B00D092E02B8A002B00D0E4
:108680009AE02B8B002B00D0A2E02B6A002B45D068
:108690002278911D0C201F2900D986E719880538FA
:1086A000052900D881E76C480F18BFB26B48844693
:1086B0000720674500D878E75F88052F00D874E762
:1086C0006548381880B28446644880460720C4450F
:1086D00000D86AE76248814205D0874203D007206C
:1086E000B94200D961E7511C21700521B1542278AB
:1086F000511C21701221B15419882278B2181170BE
:10870000090A517022780232D2B222705988B21806
:108710001170090A51702378023323706F6A002F99
:108720002ED0397923789C4602338A1CD2B29B180A
:108730000C201F2B00DD38E7634601332370033123
:108740006346F15423785A1C2270FF22F2543A886F
:108750002378F3181A70120A5A7023780233DBB2A6
:108760002370BA88002A0BD0B9680538002900D1D7
:108770001BE7F01809F06DFDBB8822789B18237069
:108780002C23EB5C0020002B00D10EE7AB6A002B02
:108790005ED0002398461633994616339A462BE04E
:1087A000280008300094330006220221FFF7BAFEA9
:1087B000002800D161E7F8E628001030009433006B
:1087C00007220321FFF7AEFE002800D159E7ECE6AF
:1087D000280018300094330015221421FFF7A2FE60
:1087E000002800D151E7E0E643460133DBB298466A
:1087F0005346EB5C434529D943465F004744BF00DD
:10880000AB6A9C4667443B792278511C2170033344
:10881000B35423785A1C22704A46F2543A8823787B
:10882000F3181A70120A5A7020780230C0B2207001
:10883000BA88002AD8D0B96800290BD0301809F0BE
:1088400008FDBB8822789B182370CDE70020ACE69A
:108850000720AAE60720A8E67FF3FFFF7DF30000CC
:10886000FFFF000030B593B00C00002347226A449C
:10887000137046226A441370002806D0C27807336A
:10888000520706D4180013B030BD00250AE00022BC
:1088900018E047226A4409A9FFF75CFE030009AD0E
:1088A0000028EFD1002CF2D0E2780723002AE9D18A
:1088B00046226A4401A92000FFF74CFE030001AAEA
:1088C0000028DFD146236B441B784721694409788F
:1088D0002800FFF7AFFD0300D4E7C04675DF7047FF
:1088E00076DF70477ADF70477BDF704700B583B073
:1088F000194B1888194B984215D0174A93780133B1
:10890000DBB29370127C9A420FD2134B00229A7002
:108910001B7D002B15D1104B9B69002B03D001A8A8
:1089200000220270984703B000BD0B492031FFF7C9
:10893000D5FF0028F7D0084BDB69002BF3D0984710
:10894000F1E73B21FFF7CCFF0028E4D0024BDB69C5
:10895000002BE0D09847DEE788200020FFFF0000D2
:1089600000B583B01D4B5A8D1B8C934203D81B4B13
:108970005B8C934223D23423184AD35C002B12D150
:10898000164B9B78002B17D1144B9968134B186B1F
:10899000002200F075FF002819D0104BDB69002B76
:1089A00015D0984713E00D4B9B69002B0FD001A801
:1089B0000022027098470AE0084BD968E6E7074BA7
:1089C0009B69002B03D001A8012202709847002167
:1089D0003423024AD15403B000BDC0468820002091
:1089E00070B516490B1D020070CA70C370CA70C3FF
:1089F00012681A6000223423CA540168002916D074
:108A00000E4C20340832200009F023FC2000FFF730
:108A100069FF00280AD1094801235B420380002333
:108A200083703030064A002100F0F2FE70BD03482A
:108A30002030FFF759FF0028EDD0F7E7882000200D
:108A4000ED88010010B5024B186B00F06DFF10BDF2
:108A50008820002010B50388112B31D01BD9122B90
:108A600042D0502B48D1C288244B5B8A9A4243D1D2
:108A7000C38B022B40D11E33C35CDB0731D41F4BA9
:108A8000186B00F051FF002836D01C4BDB69002B1F
:108A900032D0984730E0102B2ED1184C8388238099
:108AA00023002833010016310822180009F0D1FBF9
:108AB0000023A370638A002B1ED1FFF751FF1BE038
:108AC0000E4B012252421A8000229A70186B00F05D
:108AD0002BFF002810D0094BDB69002B0CD09847E6
:108AE0000AE0FFF73DFF07E0811D08220348283018
:108AF00009F0AFFBFFF734FF10BDC046882000200F
:108B000070B582B00100154C20340822200009F015
:108B1000A0FB2000FFF7E6FE041E13D10F4B5A8D79
:108B20001B8C934203D80D4B5B8C93420DD20B4DA3
:108B300001263423EE54290020312888FFF7CEFE89
:108B40000400AE70200002B070BD044B9B69002B86
:108B5000F8D001A8012202709847F3E7882000208E
:108B60000B7803704B7843700220704770B5040097
:108B70000D00080009F0B2FB2080656070BD0000A8
:108B8000A0DF7047A2DF7047F0B5CE46474680B5FC
:108B90008FB08146884616001C00002933D0002E75
:108BA00037D006AD1C2200212800FFF7FFFA0A2368
:108BB0002B700DAF093BBB704B463B80032200215D
:108BC0006846FFF7F3FA23786A46137063785370A8
:108BD0000223937001AC142200212000FFF7E6FA73
:108BE00001976B4663602681A681434623610C4B47
:108BF0001888169B22002900FFF7C4FF0FB00CBC99
:108C000090469946F0BD074A6D21002005F052FBC1
:108C1000C5E7044A6E21002005F04CFBC1E7C046C1
:108C2000C0200020A42B020030B587B0040005A9A5
:108C300001238B70634B0B80634A0120FFF7A0FF79
:108C4000051E64D12288002A00D063E02289002A10
:108C500000D06DE0228A002A00D077E0228B002A23
:108C600000D081E0228C002A00D08BE0228D002AE7
:108C700000D095E0236B002B1DD003A91A780A7051
:108C80001A68120A4A705A888A70DA78CA701A7991
:108C90000A719B684B711A0A8A711B0CCB712300F5
:108CA0003C33494A3432009208224848FFF76CFFAF
:108CB000002800D082E0616B00290CD023003C33F7
:108CC0000A79096840483C3000904148FFF75CFF52
:108CD000002800D074E0A36B002B18D01A7803A9E9
:108CE0000A705A884A70120A8A709A88CA70120AE0
:108CF0000A71DB884B711B0A8B7123003C33324AAB
:108D00004432009207223348FFF73EFF0500280057
:108D100007B030BD23003C332B490431009161681A
:108D20002D48FFF731FF002800D18FE70500EEE75F
:108D300023003C3324490C310091E1682748FFF7B8
:108D400023FF002800D185E70500E0E723003C333E
:108D50001D491431009161692148FFF715FF002872
:108D600000D17BE70500D2E723003C3316491C31D4
:108D70000091E1691B48FFF707FF002800D171E768
:108D80000500C4E723003C330F4924310091616A98
:108D90001548FFF7F9FE002800D167E70500B6E7A0
:108DA00023003C3308492C310091E16A0F48FFF75A
:108DB000EBFE002800D15DE70500A8E70500A6E767
:108DC0000500A4E70A180000C0200020232A0000A4
:108DD0002A2A0000502A0000292A0000242A000024
:108DE000252A0000272A0000262A0000282A000041
:108DF000A0DF7047A2DF7047A3DF7047A4DF704792
:108E0000A6DF704700B583B00B88112B08D0502B1C
:108E10000AD0102B01D003B000BD8B884382FAE743
:108E200001235B424382F6E7037D002BF3D0CA881F
:108E300043899A42EFD1CB8B022BECD10368002BF4
:108E4000E9D020228A5CD20705D5002101AA117041
:108E500001A99847DFE7012101AA1170F8E7F0B5F1
:108E6000D646474680B595B007000E000B680360F4
:108E700001235B4243820A790275037413A902330A
:108E80008B70484B0B80021D0120FFF7B1FF0028BB
:108E900004D015B00CBC90469A46F0BD3B7D002B2B
:108EA00064D10CAC1C2200212000FFF77FF90223C3
:108EB00023700024119401239A4602AB52469A74FF
:108EC000394B02AA138205AD032200212800FFF7C7
:108ED0006DF9B37B2B70F37B6B700223AB70337B2C
:108EE00002AAD37007AC142200212000FFF75EF91C
:108EF00006AB0793656053462381A38102AB03331E
:108F00002361BB1DB88822000CA9FFF773FF00285E
:108F1000BFD1B468002C41D0012302AA9374234B23
:108F2000138205AD032200212800FFF73FF9337CAF
:108F30002B700223AB7003AE21003000FFF710FE50
:108F4000019007AC142200212000FFF72FF906AB97
:108F5000079365606B469D882581A58126613A004F
:108F60000E32F8882100FFF747FF92E704AC032296
:108F700000212000FFF71AF911232370737B63701F
:108F80000225A5700CAB98461C2200211800FFF7A3
:108F90000DF910231D4343461D708BE70023FB8111
:108FA00077E7C0460F180000192A000008290000C2
:108FB00070B588B005006B46D9710C00037C0020A9
:108FC0008B421AD006AE082200213000FFF7EEF8DF
:108FD000012333806B46073373602C74E988688AF9
:108FE0003200FFF70BFF002807D16C8A0E4B0830C8
:108FF0009C4202D02B7D002B01D108B070BD02AE87
:10900000102200213000FFF7D1F8EB8833800123D4
:10901000B37006AB5A88B280B360079BF36031002F
:109020002000FFF7EDFEE8E7FFFF00002EDF7047AE
:1090300032DF704733DF70474CDF704710B5054BA8
:1090400018780122504018705B68002B00D09847B8
:1090500010BDC0460C21002070B504000D000C4B63
:109060005A601520FFF7E4FF002800D070BD2100F2
:109070001530FFF7DFFF0028F8D11530FFF7D6FFD6
:109080000028F3D129000330FFF7D6FFEEE7C046F2
:109090000C210020802189028023184AD150184BCE
:1090A00080225202D22189005A5040395A5001225E
:1090B0005A602F200138C046C046C046C046C04650
:1090C000C046C046C046C046C046C046C046F1D1B4
:1090D0009A600C4B00221A602F200138C046C0460F
:1090E000C046C046C046C046C046C046C046C04650
:1090F000C046C046F1D11A717047C04600E100E099
:1091000000100140142100204378013382789342FB
:109110000AD00278934209D00B60427853009B1822
:10912000DB004068C01870470023F2E70020FAE730
:10913000184B5B68DB05DB0D0220002B00D170476C
:10914000103B5AB2002A13DB9208C0329200124937
:10915000525803210B40DB00DA4013069B0F00201E
:10916000012BECD0033B1800431E98410130E6E789
:10917000DBB20F221A40083A9208920007498C4647
:109180006244526803210B40DB00DA4013069B0F58
:10919000E5E7C04600ED00E000E100E018ED00E08A
:1091A000F0B5C64600B5344B0022A02149005A5004
:1091B00004315A5004315A5004315A504C395A50E3
:1091C00004315A502D4B9A68531C46D02C4B2A49D7
:1091D000CC582A490B68E41A2402240AD3009A18AE
:1091E0009200CB689B185A68944225D300250E0044
:1091F0000F000FE0D8699B699847434601331CD0A4
:109200004346DB0043449B00FA68944663445A6833
:10921000A24212D8A41AAD181A6A90463269002ADE
:10922000E8D0D969986990470028E6D0154AB3215B
:10923000490005F03FF8E0E70025104A137D527D14
:109240009A420DD00D4B5A7D92009B189D61802152
:10925000490380235B000C4AD15004BC9046F0BD0A
:109260000133DBB2022B02D0044A5375EAE7002235
:10927000024B5A75E6E7C046001001401421002059
:1092800004050000202C020000E100E0F0B5DE46FD
:1092900057464E464546E0B58FB0BF4A136808931F
:1092A00093680993137D527D9A423CD00133DBB21F
:1092B000022B34D0B84A1375B74A137D9B00D318DC
:1092C0009B699A46089B53441B021B0A13600123A7
:1092D0000793B14B20229A5C110004925A6A0592BE
:1092E000DD681A680A9228229B5C0C93099B8946C8
:1092F00000220D920B9201920024A84A93460294F8
:10930000012203924A46013AD2B29146FF2A6CD01A
:109310004A46D600059A9446664432784EE00022CA
:109320009D4B1A75C8E700239A460793D1E7029A26
:1093300052E049688C46CF006744BF00EF19397D81
:10934000884600293AD0591C00D1ECE19C4513D045
:109350001800069262469C461300C1000918890055
:109360006918096A4A1C04D08B4200D1BAE108008E
:10937000F3E76346069AD6E106939C46D900CB18DC
:109380009B00EB181B6A41460191591C00D0B1E1CA
:1093900059460120886041460D910C910B91019135
:1093A00002990A91A6E1CB005B189B00EB181C7593
:1093B000196A4B1CF7D10B00039901917178914206
:1093C000A0D051008918C9007068844661440132F8
:1093D000D2B2B0789042AAD008780228A9D0032847
:1093E000ECD1591CEAD01900DDE7019A002A38D1E6
:1093F0000B9B002B02D0684B0A9A1A600D9B002B26
:1094000006D02823644A6946302009180978D154C7
:10941000079B002B28D1604B9B68099A9B1A5A1E08
:109420009341DBB2079301277F425B4B9A6811009F
:10943000089228229A5C06921B689B468846002365
:109440000293994601330393049B013BDBB20493DF
:10945000FF2B00D1D5E0049BDB00059A92469A448D
:1094600061E04D4A9360C3E74B4B9A6800210127A6
:109470007F4200200024079B01930AE0002903D1CA
:109480005246B61A5E60D0E743498A60F8E7019910
:109490006246531C1AD0D3009B189B00EB185E68E1
:1094A0005645EBD85146891B8A4680195C601C756D
:1094B000196A8C461E69002EE9D00899091809021C
:1094C000090A9960DE601F621700E0E70029ACD04E
:1094D000314B9A60A9E753464946197078E05A46DD
:1094E000511A0902090ADA68914202D2511A5960E6
:1094F0002DE04A465A602AE00192091B1A6A531C61
:1095000008D0D3009B189B00EB185C688C42F3D307
:10951000641A5C6041600262019BDC009C4664440A
:10952000A4002C1926627B1C3CD0FB00DB199B009D
:10953000EB183E001F6A99685A468A1A1202120AEC
:1095400017488242CBD8D9688C4662445A604A4652
:109550009A60DA6001221A75012252421A62F00002
:109560008019800028184346013311D041684346D2
:10957000DB0043449B00EB185C6842460192A14229
:10958000BBD8611A59600262B046039B0293CAE7D6
:10959000B046039B0293C6E714210020001001404F
:1095A000FEFF7F0053461B78524652789A4200D104
:1095B0004AE75A00D218D200514649688C466244A4
:1095C0000133DBB251460B708978994200D182E7B2
:1095D0001378012BA7D15668F3009B199B00EB1859
:1095E000197D00299FD191689960D168D96011696E
:1095F00019615269DA61069A002A9CD04A469A603B
:1096000099E7029B002B12D1484B9A68089B934222
:1096100011D1079B002B0ED100212823434AD1549E
:109620000FB03CBC90469946A246AB46F0BD3F4BBE
:1096300042469A60E8E7531C51D03C48D3009B183F
:109640009B00C268944663445B68394A394989582B
:1096500004680A1B1202120A03320079002821D181
:10966000344880256D02D126B6008551403E855193
:10967000314D8026B602C0277F00EE512E600125B5
:1096800005602F200138C046C046C046C046C046CF
:10969000C046C046C046C046C046C046C046F1D1DE
:1096A00022480571934200D213001B191B021B0AAA
:1096B000204AA820C00013501D481258521A120206
:1096C000120A03325B1A1B021B0A9A4200D8A3E754
:1096D0008021890280235B00174AD1509CE7FFF765
:1096E000D9FC99E7069A1900634606908C46844592
:1096F00000D143E66146C9006144890069184868A1
:109700008446096A0698C000804606984044800056
:1097100028180162481C06D0C80041188900691841
:109720004868604448603C7548E6C0461421002003
:10973000040500000010014000E100E0F8B505005C
:109740000F0016001C000720A30700D0F8BD002C56
:10975000FCD0FFF79FFC294B069A1A6129229F54DF
:10976000DC60002F0ADDF900C919890061182300A7
:1097700000221A701A7524338B42FAD1FB00DB19D0
:109780009B00E3181D4A03202021505453621A0005
:10979000183271008919C90014000020187058701F
:1097A0009E705A60521808339C42F7D11349012326
:1097B0005B428B6000230B754B75114B802040037F
:1097C000C02252009850C524A4001A59FF26B24363
:1097D0003F3E32431A5118600A4CA122D200A550D4
:1097E000C425AD005A5908481040C0221202024355
:1097F0005A51064BE3580B600020A7E714210020C4
:1098000000E100E000100140FF00FFFF0405000040
:10981000F0B583B0194BDE68002E26D0002A27D081
:10982000002827D02923154CE75C002F24DD33784E
:10983000002B15D03400243400230133BB4212DA4C
:109840000193260024342500243D2D78002DF4D1E9
:10985000012333707170B261019B0360002005E049
:1098600000230193F4E7042000E0082003B0F0BDDA
:109870000720FBE70720F9E70420F7E71421002081
:10988000F0B5C64600B582B006000C001500224BAC
:10989000DB68002B3ED029221F498A5C0720B24298
:1098A00003D802B004BC9046F0BD042CF9D9F200F4
:1098B000921992009B181A780130012AF1D15B7835
:1098C000012B25D000239846FFF732FCC000124B35
:1098D0005F6A3F1801A93800FFF716FC0300042057
:1098E000002BDED001221A705E600C4A0C498A58A7
:1098F0009A60DC6042461A615D616B461B797B7041
:109900008021490380235B00064AD1500020C8E72C
:10991000A046D9E70820C4E7142100200405000070
:109920000010014000E100E030B583B00400184BA6
:10993000DB68002B2AD0292215498A5C0720A24225
:1099400001D803B030BDE20012199200D35C01309F
:10995000012BF6D1FFF7ECFBC0000D4B5D6A2D1813
:1099600001A92800FFF7D0FB03000420002BE8D05A
:1099700002221A705C606B461B796B708021490370
:1099800080235B00034AD1500020DAE70820D8E7A3
:109990001421002000E100E010B582B0114BDA681C
:1099A0000823002A1AD0FFF7C3FBC0000D4B5C6AE6
:1099B000241801A92000FFF7A7FB042300280DD0DD
:1099C000013B0370043B43606B461B79637080214D
:1099D000490380235B00044AD1500023180002B0E1
:1099E00010BDC0461421002000E100E0024B034AF4
:1099F000D3580360002070470405000000100140A8
:109A0000401A0002000A106000207047F0B5D646E8
:109A10004F464646C0B50700080000230121E02458
:109A2000E400154A924614E09543FD60C02292027C
:109A300090469A00A025ED05AC466244155956465D
:109A400035401551155946462E4316510133202BEA
:109A50000CD00A009A401042F8D0FD681542E3D1BC
:109A60002A43FA60802292029046E2E71CBC9046AC
:109A70009946A246F0BDC046FFFFFCFF70B58400CA
:109A8000201880000E4B1C68241800230125E021BB
:109A9000C9000C4E02E00133202B0FD02A009A405F
:109AA00020681042F7D09A00A020C0058446624486
:109AB00050583040505050585050ECE770BDC046A0
:109AC00040210020FFFFFCFFF0B5DE4657464E4622
:109AD0004546E0B583B0A223DB00A022D205D758CB
:109AE0000021BE235B002D4AD1502D4B1B79002B4A
:109AF0004CD000242A4B99469A46984619E0784063
:109B00008346EB6843409A43019211002800FFF717
:109B10007DFFAB6859468B43019A134058466968EC
:109B20000840104024E00134E4B243461B79A342CC
:109B30002CD90123A3404A4692681A42F3D0A500CB
:109B40002D19AD0053461B689C466544EB687B406D
:109B50002E689E4331002800FFF758FFA223DB0048
:109B6000A022D205D0582A6878401040031EC6D1E2
:109B7000A968B943314019436B683B401E403043EC
:109B80000B000343CFD02B699847CCE703B03CBC14
:109B900090469946A246AB46F0BDC04600600040E4
:109BA0004021002010B50B1E27D007219A0701D0B5
:109BB000080010BD124A13601073002111719160EA
:109BC0008200121892001800FEF7F0FA01214942B3
:109BD000C2239B000B4AD1500B4B4020C0225200A5
:109BE0009850C124A4001A59084911408022D20378
:109BF0000A431A5118600021DAE70721D8E7C04666
:109C0000402100200060004000E100E0FFFF00FF75
:109C1000F8B5124C2468002C1CD0002B1CD00F4D22
:109C20002E792F7B0425B74201D82800F8BDB50056
:109C3000AD19AD0064190D00154325606160A26087
:109C40002361721C054B1A7106703000FFF716FF76
:109C50000025EAE70825E8E70725E6E74021002098
:109C6000F0B5CE4600B5294B1F68002F4CD01A79AD
:109C70000723824203D8180004BC9146F0BD00219E
:109C80007633FF33224AD150A223DB00A022D20533
:109C9000D35899461D4B9A68002A05D18024240682
:109CA000C1239B001A49CC50012383401343174A18
:109CB00093608300181880003F180023FB60012484
:109CC000E020C000134D0DE09A00A026F605B44632
:109CD000624416582E401650165831431150013325
:109CE000202B0FD022009A4039681142F7D0C021B2
:109CF00089024E463242E7D1F9680A43FA60802170
:109D00008902E1E70023B6E70823B4E740210020F9
:109D100000600040FFFFFCFF10B504000F4B1B6804
:109D2000002B16D00D4B1B790720A34200D810BD85
:109D30002000FFF7A3FE0123A340084A9068984340
:109D4000906008D180210906C2239B00044AD150AB
:109D5000EDE70820EBE70020E9E7C04640210020BE
:109D60000060004010B50D4B1B68002B13D00B4A50
:109D700014790722844201D8100010BDA222D2001B
:109D8000A024E405A458820010188000C358234082
:109D90000B600022F0E70822EEE7C04640210020D9
:109DA00036DF704737DF704710B50723940701D0BF
:109DB000180010BD064B1A604C1CE400A4B2121926
:109DC0005A6000221A725A72588199810023EFE773
:109DD00050210020F0B585B004000E000192474BE1
:109DE0005B8909208B4201D205B0F0BD002202AB95
:109DF000DA71434B5B68DB05DB0D0427002B0CD1CC
:109E000002ABD81DFFF7CCFF02285CD0002815D08C
:109E10003C4A662104F04EFA10E0103B5AB2002A88
:109E200040DB9208C0329200374957580322134052
:109E3000DB00DF403F06BF0F012FE1D12F4A537AED
:109E4000DBB2117A9289CDB20020914201D2681C16
:109E5000C0B283424DD0294B1D7A1B7AD8B2002163
:109E6000934201D20130C1B2244B1972012F08D0A4
:109E700062B602ABD879FFF795FF022302009A433E
:109E800023D1224B9D4230D0EB001C4A1768FF18AB
:109E9000019B3B60002C01D0002E1BD10023BB8016
:109EA0000020A1E7DBB20F221A40083A9208920084
:109EB00017498C466244576803221340DB00DF4099
:109EC0003F06BF0FB8E772B6B8E70E4A6E2104F03E
:109ED000F1F9D6E750896843536818183200210019
:109EE00008F0B7F9BE8000207EE704207CE704205C
:109EF0007AE7012FFBD0054DBAE7C046502100207C
:109F000000ED00E0942C020000E100E0FFFF000003
:109F100018ED00E0F8B5114D2E002C000CE0637236
:109F2000C3002268944663449988628950436268FA
:109F3000944660441B6898476B7A2A7ADBB2934256
:109F40000AD0707AC0B2727AB789D1B20023BA420D
:109F5000E5D20131CBB2E2E7F8BDC0465021002086
:109F6000F0B500281DDB83089B001A4A9446634421
:109F7000C026B6009D5903240440E400FF221700C8
:109F8000A740BD4389010A40A2402A439A511F239A
:109F900018401E3B83400F4AC021490053501360B4
:109FA000F0BDC5B20F232A002B40083B9B089B0045
:109FB000094CA4466344DE6903251540ED00FF24E7
:109FC0002200AA40964389010C40AC403443DC6136
:109FD000DDE7C04600E100E000ED00E082B0019066
:109FE000019B002B15D00C4A019B013B01931000F3
:109FF0000138C046C046C046C046C046C046C046FE
:10A00000C046C046C046C046C046F1D1019B002BA9
:10A01000EAD102B07047C046E7030000F0B503780C
:10A0200003261E4043789B001C251D4044680D49B3
:10A030000D480B580D4A13400B500022A023DB00A3
:10A04000CA500B58C02292022240FF273F023B40D9
:10A050001343334364016022144023432B430B50CA
:10A06000F0BDC0460070004004050000FF00FFFF87
:10A0700030B5134C134962580302134D2A40134361
:10A080006350002816D00121A023DB00E1500122FB
:10A090000B4B1A601900FF328B58002BFCD0084B79
:10A0A0000021802252009950A122D200985801220A
:10A0B0005A6030BD0021A023DB00014AD150E6E701
:10A0C0000070004004050000FF00FFFF00B583B0F2
:10A0D0002A4B1B68002B05D0C1239B00284AD3586C
:10A0E000DB0715D4274B1B68002B05D0C1239B0031
:10A0F000234AD3589B071DD4234B1B68002B05D044
:10A10000C1239B001E4AD3585B072AD403B000BD6D
:10A1100000221A4B1A6080235B006A4613801B4B97
:10A12000174AD3586A469370194B1B6800980199D7
:10A130009847D7E70022134B1A6082235B006A46D8
:10A1400013800F4BA322D2009A5869464A80A92255
:10A15000D2009B588B800E4B1B6800980199984742
:10A16000CAE70022084B1A6084235B006A4613800A
:10A17000074B1B68009801999847C7E700210140E9
:10A180000020014004210140082101400C0500008D
:10A190006021002010B5344B1A790823002A01D021
:10A1A000180010BD002852D000295AD02E4B19603B
:10A1B00041782E4BA122D2009950A021C905C26836
:10A1C000C132FF329200002454504268C132FF3243
:10A1D000920054508268C132FF3292005450A4223F
:10A1E000D20041689950224A81689950214AC16839
:10A1F0009950243201699950017D1F4A995080215C
:10A2000089005A58013422435A50437D002B20D0F4
:10A210000121A523DB00154AD1500378082B1ED05D
:10A22000A222D20011498B500623827D002A01D040
:10A2300001221343C12292000C498B50C17D122090
:10A24000FFF78EFE0122084B1A710023A8E70B4886
:10A25000AAE70021A523DB00044AD150DDE704234F
:10A26000E3E707239CE7C04660210020002001406F
:10A27000240500001C05000004050000102D02004C
:10A28000044B0122A021C9005A501A600132024B2E
:10A290001A71704700200140602100200021A02396
:10A2A000DB00044AD1500123034A1360034A1371AF
:10A2B0007047C0460020014004200140602100207A
:10A2C00010B5FFF7EBFF8021C9028023024AD1506D
:10A2D0000022024B1A7110BD00E100E06021002055
:10A2E0000122064B1A60064BA322D2009A58028024
:10A2F000A922D2009B580B807047C046082001401D
:10A3000000200140024B9C46604408607047C046F4
:10A3100000200140024B9C46604408607047C046E4
:10A320000020014036DF704737DF704710B5C1238A
:10A330009B00064AD358DB0700D410BD0022044B13
:10A340001A60044B1B689847F7E7C04600000140BD
:10A35000000101406821002070B504000F4B196016
:10A360001B790820002B00D070BD01220B4B1A7105
:10A37000002C11D022780A4D0A4BEA506368D803AA
:10A38000FA21890006F010FA074BE850217A1020D4
:10A39000FFF7E6FD0020E7E7044CEBE7682100202B
:10A3A000000001400C05000004050000282D0200FB
:10A3B000044B0122C12189005A501A600132024B1C
:10A3C0001A717047000001406821002030B5094B28
:10A3D000996800290CD00022FF25074C07482B0064
:10A3E00013408133FF339B00185101328A42F6D16A
:10A3F00030BDC04668210020000001403546526E45
:10A4000030B583B0040000226B46DA713B4B5B68C9
:10A41000DB05DB0D0425002B18D16B46D81DFFF79B
:10A4200081FF022849D0002849D1354B9B68072B72
:10A430004AD9042562B66B46D879FFF775FF022327
:10A4400002009A4352D1280003B030BD103B5AB2EB
:10A45000002A21DB9208C03292002A495558032273
:10A460001340DB00DD402D06AD0F012DD5D1244B6F
:10A470009B680425072BE6D82370591C204A91605D
:10A480002148A121C9004458DBB201229A4013009F
:10A49000234343500025D6E7DBB20F221A40083A87
:10A4A0009208920019498C46624455680322134071
:10A4B000DB00DD402D06AD0FD7E772B6B5E7144AD5
:10A4C000602103F0F7FEB0E72370591C0C4A91603D
:10A4D0000D48A121C9004458FF221A40012393408E
:10A4E00023434350012D06D00025A3E7084A6C21E1
:10A4F00003F0E0FEA7E70025A5E7C04600ED00E079
:10A500006821002000E100E00000014018ED00E0BB
:10A51000342D02008130FF308000024A024BC250CD
:10A520007047C0463546526E00000140F0B5CE4639
:10A53000474680B53B4AA023DB00D1588C4600211A
:10A54000D150A023DB05384A99588946374999509C
:10A550000C32985880469950A122D200402199503F
:10A560003839995004200138C046C046C046C0461C
:10A57000C046C046C046C046C046C046C046C046AB
:10A58000F1D108329B585B0608D51300A022D205F2
:10A59000D358012012221B0701D530E01222A0233C
:10A5A000DB05234F0821A126F600A225ED0040245B
:10A5B000D95104200138C046C046C046C046C046F6
:10A5C000C046C046C046C046C046C046C046F1D19F
:10A5D000995104200138C046C046C046C046C04616
:10A5E000C046C046C046C046C046C046C046F1D17F
:10A5F0005859044214D1013A002AD9D10020A0238D
:10A60000DB05094A494699500C3241469950A0232E
:10A61000DB00044A6146D1500CBC90469946F0BD1F
:10A620000120ECE7004000400C0700000D06000090
:10A630000C05000010B5A023DB05144A14495A503C
:10A640000C315A50134B0022842149005A501431C6
:10A650005A50A121C90003325A5006200E4A985080
:10A66000CD20C0040D4A98500D4A0E4CA220C000C7
:10A6700014500D4C0D481450012050500521A022BB
:10A68000D2009950FFF752FF10BDC0460C060000E3
:10A690000C070000004000400C05000024050000ED
:10A6A00000F00140384100401C400040140500000B
:10A6B000F0B5DE4657464E464546E0B583B0050048
:10A6C0000F00140001930023002A07D1180003B0E3
:10A6D0003CBC90469946A246AB46F0BDFFF726FF2C
:10A6E000031EF3D06808B122D20079498850EA07E6
:10A6F00010D4791C3D78764A764815500120906038
:10A70000754F8E256D002430FF3084460020804632
:10A71000704E9EE0012C1DD07048714A71498850DE
:10A720000121714A6F488150694A00258420400008
:10A7300015501160684E0100002082462530FF3020
:10A740008446A320C0008046012081466548834698
:10A75000019328E06548624A62498850E0E7504624
:10A760005050002E2ED06046105800282AD17D1C53
:10A77000404610583870013CE4B2012C43D0002C04
:10A7800046D014200138C046C046C046C046C04628
:10A79000C046C046C046C046C046C046C046F1D1CD
:10A7A000484610622F0050580028D8D160461058F3
:10A7B0000028D4D1013E002EF5D1002184235B0076
:10A7C000434AD150424B0022922149005A50A021C5
:10A7D000C9005A50464C1A5105200138C046C0469F
:10A7E000C046C046C046C046C046C046C046C04639
:10A7F000C046C046F1D101321A5104325A50FFF717
:10A8000019FF002362E739485F46354BF850B8E737
:10A81000019B2F48822149004258002AFCD0002089
:10A82000822252002A4988500130A122D2002D49AB
:10A8300088504BE7002F16D060461058002812D1E0
:10A8400040465051013CE4B2002C2DD00878905184
:10A85000013150590028EDD1604610580028E9D147
:10A86000013F002FF5D11A4B0022922149005A5086
:10A87000A021C9005A501E4C1A5105200138C0466B
:10A88000C046C046C046C046C046C046C046C04698
:10A89000C046C046C046F1D101321A5104325A5066
:10A8A000FFF7C8FE002311E7019A002A00D10DE747
:10A8B000074B0021822252009950043AFF3A5A6114
:10A8C00019000432FF328B58002BFCD0019BFDE6AF
:10A8D000004000401C050000204E00001C400040CD
:10A8E0001405000000F00140040500001440004081
:10A8F000FC0F000029DF704728DF704730B583B0B8
:10A9000002000D78CC68022C0ED0A3001B199B000E
:10A910000748C3189C684B6908000C3049680091CF
:10A920002900A04703B030BD014B1C68F3E7C046C7
:10A9300074210020F8B50600080015001C005F4BCC
:10A940001B7F002B30D11300234313D102225B4B1A
:10A950001A77FFF7D1FF002800D0ABE0002D34D1EB
:10A96000002C2DD13378042B25D00522534B1A7798
:10A9700020009FE00122514B1A7780225205546932
:10A9800013691169126992B292080904090C4143D2
:10A990001804000C6043FFF7ADFF002800D089E0E9
:10A9A0000222464B1A7785E0062B00D983E09B00F4
:10A9B000434AD3589F460722404B1A77200079E03C
:10A9C00004223E4B1A77280074E003223B4B1A778F
:10A9D00070E0802149050B694A6909690904090C7D
:10A9E00051431B041B0C58432A00FFF783FF002828
:10A9F00060D1002C0CD13378042B04D005222F4BCE
:10AA00001A77200056E006222C4B1A77200051E0DE
:10AA100004222A4B1A774DE080277F053B69AD0061
:10AA2000726879693F693F043F0C79438918491975
:10AA30001B041B0C5843801840192200FFF75AFFD3
:10AA4000002837D13378042B03D005221B4B1A770B
:10AA500030E00622194B1A772CE080235B051B6936
:10AA60007268920871691B041B0C5843AB00C01834
:10AA7000FFF740FF00281DD12C4304D107220F4BC4
:10AA80001A77200016E006220C4B1A7712E080227B
:10AA900052055369106911690004000C58430904F8
:10AAA000090C05F081FEFFF727FF002802D10722DD
:10AAB000024B1A77F8BD0320FCE7C0467421002042
:10AAC000AC2D0200F0B5C64600B5584A2023D45C30
:10AAD0001100203163001819C000051D4D19181907
:10AAE000C0001218566B0B181B79042B21D0052BB4
:10AAF0006BD0022B01D00F208FE04C4D63002A1841
:10AB0000916B4B48C0698002926A121A09181B198E
:10AB1000DB00EB18DB6AF6188019464B9A4203D823
:10AB20009208FFF7E7FE78E080225200FFF7E2FE8E
:10AB300073E03E4A63001B19DB00D318196B8B00CE
:10AB40005B189B00D318DB689E4222D002292ED0CE
:10AB500080277F0539690904090C300005F024FEBF
:10AB600001003A6938690004000C4B1C584363002B
:10AB70001C19E4002D4B1C19A36AF318C31A9B0877
:10AB80001204120C4A43B21A92082800FFF7D2FEB0
:10AB900043E08B005B189B00D3181F69586978430A
:10ABA00063001B19DB00D3189B6A9842CED1802327
:10ABB0005B0519690904090C300005F0F5FD1C4B13
:10ABC000DB69C018FFF798FE27E080235B059846F5
:10ABD00019690904090C300005F0E6FD0100134B6A
:10ABE0009C4667003B19DB006344DA6AB6184346AB
:10ABF00018691A691204120C4B1C5A433F19FF00C2
:10AC00006744BB6AF318D31A9B080204120C4A4328
:10AC1000B21A92082800FFF78DFE002803D1012206
:10AC2000024B20339A7004BC9046F0BD7421002082
:10AC3000F4210020FF03000010B5094B20335B789E
:10AC40000020002B04D0064B20339B78002B00D033
:10AC500010BDFFF737FF1128FAD10020F8E7C046F2
:10AC600074210020F0B583B0060001931B4820300A
:10AC700044780420052C29D01C30184D285C241859
:10AC8000E4B2042C01D9053CE4B2144F20208446E0
:10AC9000BC4465002819C000604406710026467156
:10ACA0002819C000381882630200303248C948C2EF
:10ACB000019B8362089BC36263469B780020002B44
:10ACC00006D0064B20335A7801325A7003B0F0BDDB
:10ACD000FFF7F8FE1128F4D10020F2E774210020DC
:10ACE000F8B56D4B20339B78002B0CD06A4B1A00C3
:10ACF0002032002191701B7F082B05D002281CD028
:10AD0000032800D1A0E0F8BD022812D000212023A2
:10AD1000624AD154FFF790FF0028F4D05E49202307
:10AD2000CA5C53009B18DB00C9182431FFF7E6FD0D
:10AD3000E9E70022584B1A77ECE7574A2021545C88
:10AD40005649C8690130C861203261000919C9003B
:10AD500052181279022A43D0052A4CD00021042A25
:10AD600051D00022002500232B430B43134328D04E
:10AD7000494B00221A774949CA6120335A78013A6F
:10AD80005A70631CDBB2042B59D8202242498B54E1
:10AD9000414E3700203765002919C9000431791860
:10ADA0000020FFF7ABFD2B19DB00FF1800223A71E2
:10ADB0002B19DB00F3189A62012119635A639A6315
:10ADC000DA62FFF739FF00289DD033492023CA5C9F
:10ADD00053009B18DB00C9182431FFF78FFD92E761
:10ADE000850261000919C9002B4E7118896A8D42CC
:10ADF000B4D3012502E0072B4CD00025042A05D04E
:10AE000000220021AFE7072B12D00025800262004C
:10AE10001219D20020498A18926A90420CD3002B52
:10AE200003D10022002101239EE7002200219AE79E
:10AE300001220021002596E70022002193E7231F2D
:10AE4000202215498B54A3E7134B2022985C203312
:10AE500042001418E40004341C191118C9005918D0
:10AE600049790131C9B21218D2009A1851710329D7
:10AE70000BD0FFF727FE002800D144E7112800D1AE
:10AE800041E72100FFF73AFD3DE721000D20FFF7E4
:10AE900035FD38E7012164E774210020F42100200A
:10AEA0000023174AD36117490B7720228B540A00DD
:10AEB00020325370937013009831002201201A71D0
:10AEC0009A6018615A619A61DA6018339942F6D132
:10AED0000B4800234362802149054A690969090436
:10AEE000090C023A4A438262064A936013619361F5
:10AEF00053611360938001222033C25400207047B5
:10AF0000F421002074210020F0B5C64600B50600EB
:10AF10000D002023444AD45C0820002C02D104BC3C
:10AF20009046F0BD002E60D0002960D03368002B21
:10AF30005FD0776880235B051B699BB20138BB42F9
:10AF4000EDD3032FEBD9B368002BE8D07B43926A93
:10AF5000904680225205516912699C46C4441204ED
:10AF6000120C4A439445DAD880225205126992B2F3
:10AF70009A4209D280235B05186980B2390005F036
:10AF800099FC07200029CAD10720BB07C7D1264B4F
:10AF9000596A03380129C2D0296043466B601422E4
:10AFA0004A43224B9B184246DA6032689A607268C4
:10AFB0001A61B0685861424300252B00802676054F
:10AFC00001339BB2306980B2904214D230690004E0
:10AFD000000C121A30690004000C80442500002A7D
:10AFE000EED1114A4046906210E00E2097E70E2005
:10AFF00095E70E2093E7002D12D1802252051269A9
:10B00000094892B2846AA44662448262142048438A
:10B01000064A121893610131034B596200207EE702
:10B02000014A40469062E8E7F421002074210020A4
:10B0300030B52023154CE45C183B002C01D11800DE
:10B0400030BD00281BD0002A1BD00368002B01D084
:10B050000723F4E70E4CA468002C14D00C4C25698F
:10B0600069434068091860696843E46800198142CF
:10B0700001D30723E3E7002010605160DFE70E23D0
:10B08000DDE70E23DBE70723D9E7C046F4210020E4
:10B0900074210020F0B583B020241D4D2D5D183C97
:10B0A000002D02D1200003B0F0BD00292AD00028D5
:10B0B0002AD0013C0568002DF4D1164CA468002C60
:10B0C00024D04768134C266965697543E4682D19D7
:10B0D0000724AF42E6D2002AE4D09642E2D3D51844
:10B0E000AE42DFD309340D001D43AD07DAD1BD07F1
:10B0F000D8D1009313000A0001000220FFF7B2FD2F
:10B100000400CFE70E24CDE70E24CBE70724C9E7E0
:10B11000F421002074210020F0B583B020241D4DBF
:10B120002D5D183C002D02D1200003B0F0BD002998
:10B130002AD000282AD0013C0568002DF4D1164CF5
:10B14000A468002C24D04768134C266965697543B0
:10B15000E4682D190724AF42E6D2002AE4D09642D3
:10B16000E2D3D518AE42DFD309340D001D43AD073D
:10B17000DAD1BD07D8D1009313000A0001000520E1
:10B18000FFF770FD0400CFE70E24CDE70E24CBE7D8
:10B190000724C9E7F421002074210020F0B583B012
:10B1A00005000F00160020222848825C0824002A8F
:10B1B00002D1200003B0F0BD002941D0002D41D0C4
:10B1C0000C68002C01D00724F3E7214A9268002A7A
:10B1D0003AD04A6894461E48016942694A43C068A9
:10B1E0001218944501D30724E3E7002E01D1072468
:10B1F000DFE7B14201D20724DBE7F218914201D226
:10B200000724D6E72A001A43920701D01024D0E77A
:10B210006246920701D01024CBE763441900320044
:10B22000280007F016F814223B685A43084B9B1875
:10B2300000969E682B00002203213800B047B8E733
:10B240000E24B6E70E24B4E70724B2E7F421002069
:10B250007421002070B582B005000C002023184A2C
:10B26000D35C0820002B01D102B070BD002D22D08C
:10B2700001382B68002BF7D1124B9B68002B1CD098
:10B280006A68104BDE6819695B694B439B199A42E7
:10B29000EAD209309307E7D1901B05F00BFB07209A
:10B2A0000029E1D100230093230000222900033864
:10B2B000FFF7D8FCD8E70E20D6E70720D4E7C04632
:10B2C000F4210020742100202023084AD25C183B7E
:10B2D000002A01D118007047002805D0044B203304
:10B2E0005B7803600023F5E70E23F3E7F4210020E9
:10B2F000742100202023104AD25C183B002A01D17F
:10B3000018007047002810D0002910D00368002BC7
:10B310000FD00A4B1A680423002AF1D1023B0B60BC
:10B320000268064B1A600023EAE70E23E8E70E23C3
:10B33000E6E70E23E4E7C046F42100207421002054
:10B3400030B583B02024144D2D5D183C002D02D162
:10B35000200003B030BD002917D0002817D0013CD1
:10B360000568022DF4D10D4C2468002C11D0102456
:10B370000D001D43AD07EBD1009313000A0001003F
:10B380000220FFF76FFC0400E2E70E24E0E70E2442
:10B39000DEE70724DCE7C046F4210020742100200A
:10B3A00010B582B020220F4CA45C183A002C02D1B8
:10B3B000100002B010BD002811D0013A0368022B22
:10B3C000F6D1094B1B68002BF2D0002300930B0031
:10B3D000002201000420FFF745FC0200E8E70E22EE
:10B3E000E6E7C046F4210020742100200369C2680A
:10B3F000934202D9013B981A704780681B18013BA1
:10B40000981AF9E7F8B505001600C7688368DC1BD1
:10B4100094420DD84368D81922000F0006F019FF96
:10B42000361B39193200686806F013FFEE60F8BD6C
:10B430004368D81906F00DFFBE19EE60F7E7F8B5BE
:10B44000CE46474680B5060088461700C5680023EB
:10B45000994615E0B26894466344013B5B1B14E0D7
:10B46000736858192200414606F0F3FEA144A04437
:10B470003F1B2D19B3689D4210D0F560002F0FD0EF
:10B4800033699D42E6D2013B5B1BB268541BBC4250
:10B4900000D93C009C42E3D91C00E1E70025ECE721
:10B4A00048460CBC90469946F8BD00B583B001AB48
:10B4B000FF221A70044A525C5A7002221900FFF7E8
:10B4C000BEFF03B000BDC046C82D020010B5124C2F
:10B4D000022323616361114AA261114BE36180235E
:10B4E000DB0023620023A3626362E362A2640D4A6D
:10B4F000E26410222265A3656365E365E01D0C3AF2
:10B50000094906F0A6FE094B1A6822609B88A380B1
:10B510002023A37110BDC046CC2C0020D82D0200E2
:10B520002022002020260020E42D0200E82D020029
:10B53000F0B5D646474680B583B00700019100922A
:10B54000304B1B78002B1FD07B00DB19DB002D4A12
:10B55000D3189D6D5E6DB54219D8731B009C9C423B
:10B5600000D91C00002C40D00198002398467B0095
:10B57000DB19DB00234AD318D96C4919220006F0E5
:10B5800068FE2D19444428E0FFF7A0FFDCE77B00AC
:10B59000DB19DB00D3181B6D5B1B009A14009A4269
:10B5A00000D91C007B00DB19DB00164A92469A4446
:10B5B0005346DB6C59192200019806F04AFE009BA5
:10B5C0001A1B2D1953461B6D9D4214D0731B160078
:10B5D0009A4200D91E00002E0FD1002C05D07B000E
:10B5E000DB19DB00074AD3189D65200003B00CBCB3
:10B5F00090469A46F0BD0025E8E7019B1819A04641
:10B600003400B4E7CC2C002010B582B00B00EFF36F
:10B610001084012181F3108801941900FFF788FF3D
:10B62000019B83F3108802B010BDF0B5DE4657468B
:10B630004E46C0B582B005000191160043001B18AC
:10B64000DB004049CB189F6A5C6AA7425AD8430086
:10B650001B18DB000A00CB18196A0B1B9946013B2B
:10B66000B34219D2FF180020BE4250D8B14527D9A5
:10B67000344F6A1C53009B18DB00FB1858680019F4
:10B680003200019906F0E5FDA6196B005D19ED0089
:10B690007D196E6201203AE01700421C53009B188E
:10B6A000DB00FB18586800193200019906F0D1FD43
:10B6B000A6196B005D19ED007D196E62012026E070
:10B6C000204B9A466B1C9B465F00FB18DB005344E3
:10B6D000586800194A46019C210006F0BAFD4B4605
:10B6E000F61A5F44FF005744786823004B44190062
:10B6F000320006F0AEFD6B005D19ED0055446E6240
:10B70000012004E0013F3F1B0020BA4205D902B0EE
:10B710001CBC91469A46A346F0BD0A4F6A1C5300D2
:10B720009B18DB00FB18586800193200019906F0DD
:10B7300090FDA6196B005D19ED007D196E62012068
:10B74000E5E7C046CC2C0020F8B50E001500431CE0
:10B750005C00E418E400174AA41843001818C0005D
:10B760001018C76A012F11D0002F03D0022F1BD051
:10B77000002717E02000FFF739FEA84212D32A0065
:10B7800031002000FFF73EFE2F000BE02000FFF706
:10B790002DFE2F00854200D907003A00310020001D
:10B7A000FFF730FE3800F8BD2A002000FFF747FE03
:10B7B0000700F7E7CC2C002070B582B004000D0024
:10B7C00016000B4B1B78002B0FD0EFF310830121D9
:10B7D00081F310880193320029002000FFF7B4FFA5
:10B7E000019B83F3108802B070BDFFF76FFEECE79A
:10B7F000CC2C002070B505000C00080006F06EFD92
:10B80000020021002800FFF7D7FF70BD00B583B00C
:10B8100001226B46D91D0020FFF7F6FE012803D157
:10B820006B46D87903B000BD01204042FAE710B55D
:10B83000FFF7ECFF0028FBDB10BD10B5064B1B78B3
:10B84000002B06D0044B986D5B6DC01A431E9841C7
:10B8500010BDFFF73BFEF5E7CC2C00200549430067
:10B860001A18D2008A18526D1B18DB00CB18986D7D
:10B87000101A7047CC2C0020F0B583B004000F00E4
:10B8800016001D00194B1B78002B28D0174B1B6985
:10B89000A34227D9EFF31083012181F3108801938C
:10B8A000002C0FD0114A611C4B005818C000875063
:10B8B00013185E6063001B19DB00D3181D620022A1
:10B8C0009A625A6263001C19E400084B1C19089B19
:10B8D000E362019B83F31088002003B0F0BDFFF703
:10B8E000F5FDD3E701204042F7E7C046CC2C00200D
:10B8F000F0B583B004000F0016001D00164B1B7836
:10B90000002B23D0144B5B69A34222D9EFF31083A1
:10B91000012181F310880193002C0AD063001B19C8
:10B92000DA000D4B9B189F64DE641D6500229A654A
:10B930005A6563001C19E400074B1C19089BE3655A
:10B94000019B83F31088002003B0F0BDFFF7BEFD1C
:10B95000D8E701204042F7E7CC2C002030B583B077
:10B9600004000D000F4B1B78002B15D00D4B1B69ED
:10B97000A34214D9EFF31083012181F310880193BE
:10B98000013463001C19E400064BE550019B83F36E
:10B990001088002003B030BDFFF798FDE6E70120D6
:10B9A0004042F7E7CC2C002030B583B004000D00F6
:10B9B0000F4B1B78002B15D00D4B5B69A34214D99C
:10B9C000EFF31083012181F31088019360000019C7
:10B9D000C000074B18188564019B83F31088002072
:10B9E00003B030BDFFF772FDE6E701204042F7E704
:10B9F000CC2C002010B5044B1B78002B00D010BDC0
:10BA0000FFF764FDFBE7C046CC2C002010B582B0E8
:10BA100004001E4B1B78002B26D0FF2201AB1A70AE
:10BA20000F2C30D81A4B1A5D01AB5A70EFF310830C
:10BA3000012181F310880093144BDB6A0322134029
:10BA4000022B14D01348FFF7D1FC012818D9124B50
:10BA50001C74022201A90F48FFF7D4FC0020009BB0
:10BA600083F3108802B010BDFFF730FDD5E70A4B15
:10BA70001C74013A01A90748FFF7E1FC0020EEE73A
:10BA800001204042EBE701204042EBE7CC2C0020B4
:10BA9000C82D0200E42C002020260020F0B585B03F
:10BAA00004000091364B1B78002B1DD00F2C63D85F
:10BAB000009806F013FC05000190EFF310830121BC
:10BAC00081F3108803932F4E3000FFF78FFC07009F
:10BAD000736903221340012B1ED0002B07D0022BC9
:10BAE00034D00126764241E0FFF7F0FCDEE72B1D63
:10BAF000002698423AD3234F21003800FFF7D5FCA7
:10BB00002A0000993800FFF79AFC06001E4B197CAA
:10BB10003800FFF7CAFC29E0032802D80126764244
:10BB200024E021001748FFF7C0FC3A1F019B9A420E
:10BB300000D92A00134C00992000FFF780FC060072
:10BB4000114B197C2000FFF7B0FC0FE00D4F2100D6
:10BB50003800FFF7AAFC2A0000993800FFF76FFCB5
:10BB60000600094B197C3800FFF79FFC039B83F309
:10BB70001088300005B0F0BD01267642F9E7C046D6
:10BB8000CC2C0020E42C00202026002010B504003E
:10BB90008268531C4068834205D820688154A360A2
:10BBA000E3680133E360A26863689A4200D010BD85
:10BBB00021682069FFF700FEA368984203D00123A3
:10BBC0005B42E360F3E70023A360F0E7F0B5DE46F5
:10BBD00057464E464546E0B583B007000191150033
:10BBE0001E000C9B994691422DD308000124290088
:10BBF00004F0DAFD01348542F9D9B346A64200D2F9
:10BC0000A34601230D9A1A4090461ED14B46002BA5
:10BC10001BD020240D9B9B0702D5002E00D1103491
:10BC2000D94512D901235B429C46E14421003800EA
:10BC3000FFF7ACFFFB68002B49DB4B46002B07D01E
:10BC4000CB45EFD104E00124D7E7FB68002B3EDBB6
:10BC5000012406E02100019804F0A6FD854204D8E5
:10BC60006C43012EF6D9013EFAE71C4B9A4621009F
:10BC7000019804F099FD06002100019804F01AFED5
:10BC800001915346995D3800FFF780FFFB68002B58
:10BC900005DB2900200004F087FD041EE7D14346A0
:10BCA000002B14D04B46002B11D0CB450FD20123D3
:10BCB0005B429C46E14420213800FFF767FFFB68A8
:10BCC000002B04DB4B46002B01D0CB45EFD103B05A
:10BCD0003CBC90469946A246AB46F0BDF02D020012
:10BCE000F0B5DE4657464E464546E0B59DB0059058
:10BCF0000C00924607AB1793402318930023199327
:10BD00001B901A930427A7E00026012502201D3965
:10BD100006E0232B14D10E43013401E02E430134FD
:10BD200023782B2B09D0DAB22B2AF2D92D2BF5D080
:10BD3000302B05D106430134F2E73E430134EFE7EF
:10BD400022781300303B092B11D800250134AB00B9
:10BD50005D196D00AD18303D22781300303B092B82
:10BD6000F4D9002398462E2A03D023781EE000251C
:10BD7000F7E7611C62781300303B092B10D80131C2
:10BD800043469B0043445B009B183022524290463E
:10BD900098440A781300303B092BF0D90C00E4E7F3
:10BDA0000C0000239846E0E7237801341A00BA43D8
:10BDB000682AF9D0642B5BD013D9732B00D1D7E05C
:10BDC0001AD9752B29D153461B681A1D51460A6092
:10BDD00019680196009543460A2217A8FFF7F6FE58
:10BDE00034E0582B1BD0632B27D0252B2ED12521B7
:10BDF00017A8FFF7CBFE29E0702B27D153461B680D
:10BE00001A1D51460A6019680023019308330093F4
:10BE1000102217A8FFF7DAFE18E0782B16D1534648
:10BE20001B681A1D51460A60196801960095434621
:10BE3000102217A8FFF7CAFE08E053461B681A1D18
:10BE400051460A60197817A8FFF7A0FE01341A9B23
:10BE50000393002B00DA9EE021780134002900D101
:10BE600099E0252900D14FE717A8FFF78FFEEEE7ED
:10BE700053461B681A1D51460A601B689B46DA1719
:10BE800098185040092836DD012399460A2104F00C
:10BE900015FD01239C46E1440928F7DC4346039342
:10BEA000C84501D24B460393002D05D05B46002BBD
:10BEB00001DB374200D0013DB30702D54346002BDA
:10BEC00003D0F30701D4002D18D11A9B0493002B43
:10BED000BCDB5B46002B23DB374228D103233340F6
:10BEE000022B2DD00196009543460A22594617A8E9
:10BEF000FFF76CFEAAE701239946CFE7039BAB420D
:10BF0000E3D2013D202117A8FFF740FE1A9B0493BE
:10BF1000002B9BDB002DDCD0039BAB42F1D1D8E79B
:10BF20005B429B462D2117A8FFF730FE03E02B2133
:10BF300017A8FFF72BFE1A9B0493002BCEDA85E798
:10BF40004346002BCED1002DCCD0039BAB42C9D2AF
:10BF5000013D302117A8FFF719FE1A9B0493002B0F
:10BF600000DA73E7002DBDD0039BAB42F0D1B9E7F7
:10BF700053461B681A1D51460A601D682978013511
:10BF8000002900D162E717A8FFF700FE1A9B039370
:10BF9000002BF3DA5AE71A9B002B0BDD199A002AC3
:10BFA00010D11A9B0393199B0493039B049A944604
:10BFB00063441A931A981DB03CBC90469946A24619
:10BFC000AB46F0BD07A90598FFF7F6FBE9E70EB40D
:10BFD00000B582B003AB02CB019301AAFFF780FE4C
:10BFE00002B008BC03B018472EDF704732DF70473D
:10BFF00033DF70470022034B1A700132024B1A6084
:10C000007047C046342600200070004010B582B052
:10C010006846244B6A4612CB12C200234370FDF7D8
:10C02000FDFF214B21481A582149114080229201DD
:10C030000A431A500122A021C9005A50FD39FF3984
:10C040005A500720FFF7D2FF002817D103210720FD
:10C05000FFF7CEFF002816D10720FFF7C5FF002805
:10C0600016D1144A012114480430FDF7D1FB0028F1
:10C0700013D101220C4B1A6002B010BD0F4A85216A
:10C0800002F018F9E2E70D4A882102F013F9E3E71C
:10C090000A4A8B2102F00EF9E3E7084A552102F023
:10C0A00009F9E6E7002E02000070004004050000D8
:10C0B000FF00FFFFF5BF010034260020082E02001C
:10C0C00010B5074B58680022B421C903FDF7D8FB0F
:10C0D000002800D110BD034A612102F0EBF8F9E716
:10C0E00034260020082E020080235B00054AD35826
:10C0F000002B06D0002180235B00D1500122024B8F
:10C100001A7070470070004034260020A223DB0024
:10C11000A022D205D058400B012358401840704748
:10C12000014B187A7047C046342600200020704723
:10C13000F8B5214B1C78E4B2002C01D12000F8BDE9
:10C14000A123DB001D4AD05887B20004050C28004B
:10C1500005F0C6FE1A4A1B4B05F0F8F800221A4BF0
:10C1600005F0F4F80022194B04F0BCFD04F0DCFCEF
:10C1700086B2174B9F420DD8164B9F4217D9164BCC
:10C180009C466544642068432E2104F097FB0A4BCB
:10C19000187202E06422084B1A72074D2B7A3200A3
:10C1A0000E490020FFF713FF00232B70C6E7002283
:10C1B000014B1A72F1E7C04634260020007000409F
:10C1C000295C8FC2F528164000C0924000F88F40CD
:10C1D0006602000039020000C7FDFFFF542E020076
:10C1E00010B5164A01231370154B164CE3585268CC
:10C1F0009B1A154A93420FD94B0313D4430310D50E
:10C200000F4B104AD2580D4B5A6000221A720F4938
:10C210000020FFF7EFFA04E0084B00221A70013209
:10C220001A7210BD064B074AD258044BDA6001223D
:10C230001A7207490020FFF7DDFAF2E740260020D6
:10C240000405000000100140CC2C00007C2E0200F0
:10C250006C2E0200024B187A431E9841C0B2704700
:10C2600040260020034B1878C0B2002801D00022DD
:10C270001A7070474026002082B0009001912F4B29
:10C280001B68002B04D12E4B2E4AD2582B4B1A6020
:10C290002A4A9388694649885B181BB29380284BC9
:10C2A0002849CB5812689B1A274A934229D8274A13
:10C2B00093422BD9214B9B881BB2002B28DD1F4BAF
:10C2C0009A8812B20123022A00DC0023DBB2002B81
:10C2D0001CD01A4B9B881BB2002B23DD174B9A886E
:10C2E00012B2D30F00201A4991424341DBB2002B16
:10C2F0000CD0124B01229A71114A12498A581A60C5
:10C3000004E00E4B00229A801A609A7102B07047C6
:10C310000A4B9A8812B252420123022A00DC0023FF
:10C32000DBB2D4E7054B9A8812B25242D30F0020F9
:10C33000074991424341DBB2D9E7C046502600206D
:10C340000405000000100140140E00003D0A00002A
:10C35000EF0A000010B5024801F026FA10BDC046F1
:10C3600079C20100014B9879C0B270475026002075
:10C37000054B9B790020002B05D0034B988800B219
:10C3800000229A809A7170475026002010B500282C
:10C390000DD180210906A123DB00A022D205D150B6
:10C3A000FDF77CFF08490020FFF724FA10BD80212B
:10C3B0000906064BA022D205D150FDF761FF0449C2
:10C3C0000020FFF717FAF1E7A82E02000C05000085
:10C3D000902E0200F0B5CE46474680B583B00400EB
:10C3E000002500239C460193994602E0BC46019338
:10C3F00002340135EDB2092D1ED82B000127A046CD
:10C4000003E00133DBB20A2B0CD021885A008218DA
:10C4100016888E42F5D10029F3D00137FFB2494684
:10C420001180EEE743461B88002BE1D0BFB2674581
:10C43000DCD2092DDCD902E02388002B05D101983C
:10C4400003B00CBC90469946F0BD6246012AF0D874
:10C450000193F4E710B501F02BFC10BD0122014B54
:10C460001A7070475826002010B5040001F092FCA5
:10C47000024B5C7000229A70DA7010BD58260020C2
:10C48000014B98887047C046582600200E4B5B78B9
:10C49000002B11D10D4B1B78092B00D070470B22BC
:10C4A0000A4B1A70084B00229A710949094A8858A8
:10C4B00098608A58DA60F1E7044B1B780C2BEDD1B9
:10C4C0000D22024B1A70E9E758260020BC2C0020F0
:10C4D0000010014004050000094B0A4AD3580A4ADB
:10C4E000D2689B1AF0225203934203D9074B1B7860
:10C4F0000C2B00D070470D22044B1A70FAE7C0468F
:10C50000040500000010014058260020BC2C00202B
:10C51000F0B59BB00120FFF7A7FF0822002118A863
:10C52000FBF744FE2C4C1034082200212000FBF7BE
:10C530003DFE200001F04CFC002418AD13AB03932A
:10C540000821280001F059FC061E40D02A88039BD0
:10C55000E2526B880EA96352A98809A82152E88883
:10C5600004AFE053019000911C490020FFF72FFD1C
:10C570000A20FDF733FD0234142CE1D113A8FFF794
:10C5800029FF154C20820EA8FFF724FF608209A81E
:10C59000FFF720FFA08204A8FFF71CFFE082250020
:10C5A0001035280001F014FC638A228AE18A019187
:10C5B000A18A00910A490020FFF709FD0020FFF73A
:10C5C00053FF280002F09EFB30001BB0F0BD00209E
:10C5D000FFF74AFFF8E7C04658260020C02E0200A9
:10C5E000D02E020010B582B0164B9A89164B9A4293
:10C5F00024D0144BDA89144B9A421FD0114B1A8A5B
:10C60000114B9A421AD00F4B5A8A0F4B9A4215D0AF
:10C610000E4C220010320B4B0C3303CB03C2200014
:10C62000103001F0D5FB638A228AE18A0191A18A48
:10C63000009107490020FFF7CAFC01E0FFF768FFFF
:10C6400002B010BD442D0020FFFF0000582600203E
:10C65000002F0200F8B59B4B9B4AD3589B4A926827
:10C660009B1A9B4A93424AD9984B1B78002B03D0C4
:10C67000964B9B78002B48D0924B934AD358934AC1
:10C68000116A5B1A934A934200D8F3E08F4B1B78F0
:10C69000002B00D0EAE08D4B9B78002B00D0E5E02A
:10C6A0008A4BDC78002C00D1E0E09B79012B00D193
:10C6B000DCE0864A01239370002393712C201354ED
:10C6C000938CD08C181800B2138D528D9B181BB20E
:10C6D000984203DDC21A1E2A00DDBCE0984200DB4E
:10C6E000C8E01B1A1E2B00DCC4E07B497B4801F02C
:10C6F0005FFE764B00229A80DA709A7003E0002287
:10C70000724B1A7000242000F8BD08216F481830C1
:10C7100001F073FB041E2FD06B496A4A88586B4B9B
:10C7200018628A58DA60DB78002B0AD1674B012245
:10C73000DA701A8B9A845A8BDA849A8B1A85DA8B80
:10C740005A85624B9B79002B24D12C335F4AD35CF2
:10C75000002B07D15B4B5C4AD2585C4B1A6301211A
:10C760002C229954574B584AD358584A126B9B1A4B
:10C7700080229201934203D80022544B1A707BE727
:10C78000524B00212C2299542B3A9A715449554806
:10C7900001F00EFE4D4B9B79012BEDD1494B4A4ADE
:10C7A000D3584A4A526B9B1A4A4A9342E4D9474F9C
:10C7B0001823FD5E1A22BB5EED181C22BB5EED182D
:10C7C0001E22BB5EEB180233DD1703263540ED1841
:10C7D000AD102DB22A0044490020FFF7F8FB2802D3
:10C7E000281A398A7B8AC918BB8AC918FB8ACB18D0
:10C7F0000233D9173140C918891009B280235B016F
:10C80000591A04F05BF8FF30051C00B2FF2800DD68
:10C81000FF252B041DD42EB2320034490020FFF72F
:10C82000D6FBAAB229490B8FD31A1BB20D870E2B48
:10C83000A2DC002EA0DD0B000021198712020421CA
:10C840000A439A801F4A20498A585A6300221A7064
:10C8500059E70025DFE72049254801F0A9FD1B4BDA
:10C8600001229A800022DA709A704CE7174B00225E
:10C87000DA709A70154B1B78DBB20024002B00D0C5
:10C8800041E7124A9478E4B2002C18D19379012B35
:10C8900000D038E70B4B0C4AD358591A80239B0120
:10C8A000994200D82FE7094B00229A71DA702C21A7
:10C8B0005A549A700A490F4801F07AFD23E71C0088
:10C8C00021E7C04604050000001001405826002062
:10C8D000FF7F0000CD0C00006C2F0200842F0200AF
:10C8E000382F0200402F0200582F0200602F020054
:10C8F000742F0200942F020010B50D4A01210D483B
:10C90000FCF786FF002808D10A4B186800220A4964
:10C91000FCF7B6FF002805D110BD084A752101F0CB
:10C92000C9FCF1E7054A782101F0C4FCF4E7C046F0
:10C93000D9C9010094260020CD0C00002831020046
:10C9400010B500281ED01E4B1B79002B00D010BD47
:10C950001B4B186800221B49FCF792FF00280CD1E2
:10C9600000F0C0FF0122164B1A710520FDF736FBBF
:10C9700015490020FEF73EFFE9E7144A832101F044
:10C9800099FCEDE70E4B1B79002BE0D00C4B18689F
:10C99000FCF7CAFF00280DD1802149000C4BA022D2
:10C9A000D205D1500022064B1A710A490020FEF729
:10C9B00021FFCCE7054A8D2101F07CFCECE7C04665
:10C9C00094260020CD0C00007031020028310200B6
:10C9D0000C0500008431020070B5DB4B5B79DBB2E3
:10C9E0000F2B00D946E29B00D84AD3589F46D64B1E
:10C9F0009B79002B00D145E10022D34B9A71002096
:10CA0000FFF79EFF3EE10120FFF79AFFD04900208B
:10CA1000FEF7F0FE00F090FF012802D0012000F0A8
:10CA2000F5FEC948083000F0E7FF002800D129E1F1
:10CA3000C84BC94AD258C44B5A6101221A760332F4
:10CA40005A711FE10120FFF77BFFC24BC24AD35846
:10CA5000BD4A51695B1AD269934200D212E1BF49C3
:10CA60000020FEF7C7FEBB4BBB4AD258B64B5A61FB
:10CA700003225A7106E10120FFF762FF00F0F0FF88
:10CA8000002800D1FEE0B34BB34AD258AE4B5A61F6
:10CA900000221A7601325A71B1490020FEF7AAFE2F
:10CAA000F0E00120FFF74CFF0022A74B9A71AD493F
:10CAB0000020FEF79FFE00F03FFF022802D0022078
:10CAC00000F0A4FE2023A04AD35C002B14D0A64B78
:10CAD00019781000083000F0FAFF002800D1D1E0EA
:10CAE0009C4B9D4AD258984B5A6101221A762121BB
:10CAF0005A5406325A71C5E09348083000F07CFF62
:10CB0000002800D1BEE0984B187800F0C3FF002841
:10CB100000D1B7E08F4B904AD2588B4B5A6101221B
:10CB20001A760021203299541A3A5A71AAE001204B
:10CB3000FFF706FF874B884AD358834A51695B1A2F
:10CB4000D269934200D29DE088490020FEF752FE50
:10CB5000804B814AD2587C4B5A6106225A7191E02F
:10CB60000120FFF7EDFE002000F094FF002800D127
:10CB700088E0784B784AD258734B5A6100221A7673
:10CB800001325A717A490020FEF734FE7AE0012022
:10CB9000FFF7D6FE77490020FEF72CFE00F0CCFE12
:10CBA000032802D0032000F031FE6748083000F06F
:10CBB00023FF002866D0674B674AD258624B5A6100
:10CBC00001229A711A7608325A715BE00120FFF750
:10CBD000B7FE604B604AD3585B4A51695B1AD26911
:10CBE00093424FD364490020FEF704FE594B5A4A42
:10CBF000D258554B5A610A225A7143E00120FFF77F
:10CC00009FFE00F02DFF00283CD0524B524AD258D4
:10CC10004D4B5A6100221A7601325A715749002051
:10CC2000FEF7E8FD2EE00120FFF78AFE2223464AA8
:10CC3000D25C53490020FFF7CAF900F07DFE0228BC
:10CC400002D0022000F0E2FD3F4C2226A35D250029
:10CC50002435EB18197B987800F088FEA35DEB185B
:10CC60009878012100F0AAFEA25DA3184433197838
:10CC7000AD18A87800F01CFF364B374AD3586361D3
:10CC80000C23637170BD0120FFF75AFE314B324A0D
:10CC9000D4582D4B22229D5C5A69A41A2A000C32CA
:10CCA00092009B189B6A590CD803FA225200002369
:10CCB00080185941FA229200002303F0EBFE8442CF
:10CCC000E0D32A002F490020FFF781F9214B224AA7
:10CCD000D2581D4B5A610D225A71D3E70120FFF73C
:10CCE0002FFE194B22229A5C24215B5C9342C9D906
:10CCF000154B24335978244B1B7B9942C2D9124CD3
:10CD000025002435AA18917D907800F02FFE222668
:10CD1000A35DED182B002A331978A87800F0C8FE1F
:10CD2000A35D0133DBB2A3552422A25C9A4207D053
:10CD3000084B094AD258044B5A610B225A71A1E799
:10CD40000E22014B5A719DE794260020A82F020065
:10CD5000983102000405000000100140B8310200C3
:10CD6000D8310200F8310200682000201832020099
:10CD7000383202005832020080320200A83202002B
:10CD8000D0320200F0320200142700200120FFF709
:10CD9000D7FD3B4B3B4AD4583B4B5A69A41A8822D7
:10CDA0009B58590CD803FA2252000023801859418D
:10CDB000FA229200002303F06DFE844200D261E764
:10CDC000324C227B32490020FFF701F92E4A002124
:10CDD0002223D154237B0133DBB223732849294812
:10CDE00041585161243252789A420CD0244B254A42
:10CDF000D358264A11695B1A526993420ED30F2207
:10CE0000214B5A713EE71E4BC358204A11695B1AE9
:10CE100052699342F3D200221C4B1A730B221A4B15
:10CE20005A712FE70120FFF78BFD154B154AD45897
:10CE3000154B5A69A41A84229B58590CD803FA221C
:10CE40005200002380185941FA229200002303F077
:10CE500021FE844200D215E700F002FE0A4A0123B7
:10CE600053710A4B1B7B2221525C0A490020FFF7B9
:10CE7000AEF807E708490020FEF7BCFC02E7C04611
:10CE80000405000000100140942600201427002013
:10CE9000103302003433020058330200014B9879FA
:10CEA0007047C0469426002010B504000B220100F4
:10CEB0001E48083005F0CDF9E37A002B2CD01C4A2F
:10CEC0001370207BC82292030023002103F002FE8E
:10CED000FA225200002380185941FA2292000023BE
:10CEE00003F0D8FD00281BD0104BD8610F48827C7E
:10CEF000110901231940202401555209134019003A
:10CF00004A1E91410B4A1176002B04D01300017A7E
:10CF10005976C2695A6110BDFF22054B1A70D0E7DD
:10CF2000B422D203014BDA61E0E7C0469426002028
:10CF3000682000201427002010B5FFF7B5FF02225B
:10CF4000014B5A7110BDC0469426002070B50500F3
:10CF50000C000120FFF7F4FC2800FFF7A5FF2000DC
:10CF600000F0FAFC0822014B5A7170BD9426002093
:10CF700010B50120FFF7E4FC064C0123A37100F07B
:10CF80006FFD01210448FFF7E1FFC0235B02E3616D
:10CF900010BDC04694260020E82F020010B50120E5
:10CFA000FFF7CEFC064C0123A37100F059FD0221CE
:10CFB00004481030FFF7CAFFF0231B03E36110BDE4
:10CFC00094260020E82F020010B50120FFF7B8FCDE
:10CFD000064C0123A37100F043FD022104482030D8
:10CFE000FFF7B4FFF0231B03E36110BD942600207C
:10CFF000E82F020010B504000120FFF7A1FC002C6F
:10D0000004D00E4B1B7E002B0ED010BD00F028FD6F
:10D010000A4C01236371022109483030FFF796FF63
:10D02000F0235B03E361F0E7022105483030FFF7AE
:10D030008DFFF0225203014BDA61E6E794260020CF
:10D04000E82F02000A22014B5A71704794260020F3
:10D0500010B50120FFF774FC032000F0D7FB02207D
:10D0600000F07AFC0248403000F0C6FC10BDC0461B
:10D07000E82F020010B50120FFF762FC012000F04C
:10D08000C5FB002811D10A4C0123A37100232222E1
:10D09000A354084A137320002430682206495031F3
:10D0A00005F0D7F80B23637110BD00F0D9FCEAE757
:10D0B0009426002014270020E82F020070B50120DC
:10D0C000FFF73EFC012000F0A1FB002815D10C4C1D
:10D0D0000123A37100232222A3540A4D2B732000A5
:10D0E000243046320849383105F0B3F8074B084A76
:10D0F000D3582B610B23637170BD00F0B1FCE6E7E0
:10D100009426002014270020683002000405000047
:10D110000010014010B50A482030FFF7C5FE00F0AE
:10D120009FFC002803D10522064B5A7110BD002038
:10D1300000F0B0FC0028F6D0032000F003FCF2E77A
:10D14000E83002009426002010B50C00FFF7ACFE7A
:10D150002023254AD35C002B1BD0244B1B7E002BA5
:10D160001BD12133D35C002B0CD100F079FC0028BB
:10D170000BD0002000F08EFC002806D0022000F02A
:10D18000E1FB02E0012000F0DDFB0522164B5A71A5
:10D190000EE0164B1B7E002B03D0144B587E00284C
:10D1A00007D100F05DFC002814D105220E4B5A7106
:10D1B00010BD01F097FF02000D490020FEF707FFA8
:10D1C0000A4B5B7E012B02D0FFF7A4FFF0E7FFF7CD
:10D1D00075FFEDE7002000F05DFC0028E5D02000A1
:10D1E00000F0B0FBE1E7C0469426002014270020A1
:10D1F0006C33020010B504000120FFF7A1FB0221EF
:10D200002000FFF7A1FF10BD10B503210448303006
:10D21000FFF79AFF80221202024BDA6110BDC0466E
:10D22000E83002009426002010B504000120FFF72A
:10D2300087FB200000F0DEFA10BDC04610B500F0FC
:10D2400091FC041E01D1200010BD00F016FD014B21
:10D250001870F8E73027002010B5040000F0E8FC53
:10D26000002C04D104490020FEF7C4FA10BD034984
:10D270000020FEF7BFFAF9E798330200843302007A
:10D28000034B5878C0B2002801D000225A70704772
:10D2900030270020024B00229A70D8787047C04691
:10D2A000302700200D4B1879002816D00C4B0D4A62
:10D2B000D3580A4A92689B1A8022D20193420BD912
:10D2C000064B00221A711B78302B01D0002004E09D
:10D2D0000A32024BDA7000E000207047302700204D
:10D2E0000405000000100140054B1B78302B04D0D2
:10D2F000034B18790123584070470020FCE7C046D3
:10D300003027002010B50F4B1B78302B0AD0002B94
:10D3100007D00C4A012111730B490C484158116187
:10D32000137510BD074A1279002AF2D1054B01325C
:10D330001A71054A05498A589A6005490020FEF786
:10D3400059FAEEE7302700200405000000100140E4
:10D35000B033020010B5244B1C7B002C3FD0234B74
:10D36000234AD358204A12699B1A224A934235D93C
:10D3700000221D4B1A73204B1B78012B31D01A4B06
:10D380001A781B7D934201D0002428E093070FD127
:10D39000530615D453B2002B12DB0C23134216D0C4
:10D3A0000B22114BDA7015490020FEF723FA0EE02C
:10D3B00008220D4BDA7012490020FEF71BFA06E036
:10D3C0000922094BDA700F490020FEF713FA074BC8
:10D3D000074AD3580122044B5A7500E0002420006C
:10D3E00010BD0024FBE7C0463027002004050000E4
:10D3F00000100140999900004826002000340200E6
:10D40000D8330200EC33020070B53B4B9C7D002CFE
:10D410005ED03A4B3A4AD358374A92699B1A3949F7
:10D420008B4254D90021344B9975374B1B78012B13
:10D4300050D0324B3249CB58344909685B1A8021AD
:10D4400049028B4248D92D4B2D49CB5830490968A8
:10D450005B1A802149028B4240D9284B2849CB587E
:10D460002C4909685B1A2C498B4239D9224BDB695C
:10D470009A4237D32023204AD65C70B2C30724D403
:10D4800001220125290091400B000340DBB29942A3
:10D4900019D00132092AF5D1731E012B26D9BF22DA
:10D4A0003F3B134224D03032303313421CD0043E71
:10D4B000FB231E421ED010320F4BDA70174900209A
:10D4C000FEF785FD04E01E00E6E70422F4E70024F1
:10D4D000200070BD0024FBE70024F9E70024F7E7F3
:10D4E0000024F5E70024F3E70024F1E70422E3E752
:10D4F0000522E1E70722DFE73027002004050000CE
:10D500000010014032330000482600204C26002045
:10D510004426002050260020FF3F00001434020063
:10D52000F8B5CE46474680B5504B9E78002E00D1C8
:10D5300097E05F6A002F00D192E04D4B4D4AD358DF
:10D540004D4A12689B1A4D4A93421BD90024474DFD
:10D550002035625D4A490020FEF739FD0134A742BB
:10D56000F7D148490020FEF745F9404B5C6A012C91
:10D570006BD001239C463D4B202290469844552079
:10D58000454655E00022394B9A70002669E0012992
:10D5900025D0402923D004292DD010292BD00133A8
:10D5A000A34240D25A5D104202D017008743F6D101
:10D5B0009142ECD3F3D9022929D0802927D0082918
:10D5C00001D02029EBD130490020FEF713F9274B79
:10D5D0000222DA70264A27498A58DA6141E02B494B
:10D5E0000020FEF707F9214B0122DA70204A214979
:10D5F0008A58DA6135E026490020FEF7FBF81B4B1C
:10D600000322DA701A4A1B498A58DA6129E0214953
:10D610000020FEF7EFF8154B0022DA70144A154986
:10D620008A58DA611DE001239946CC44A4450CD008
:10D630006346013B4246D15C084202D00B00834363
:10D64000F1D16346A445ADD3EDE7084B00229A70B3
:10D6500001329A75064A07498A589A61002600E005
:10D66000002630000CBC90469946F8BD30270020BB
:10D67000040500000010014064260020FF7F000028
:10D6800020340200343402005834020028340200EE
:10D69000383402004834020010B51C4B1C4AD358E1
:10D6A0001C4AD2699B1A1C4A934200D810BD194CDF
:10D6B0000123637000F0E1FA20700023A3750028B5
:10D6C00003D0144B9B6A032B18D9124CA36A6362D4
:10D6D0002000203021002C311A0004F0BAFD012373
:10D6E000A3700023A362E362637D002BDED0094BAD
:10D6F00000225A759A705A621A62D7E7054AD418FE
:10D700002C21605401339362D0E7C0460405000029
:10D710000010014030270020FF3F000010B500F04E
:10D72000DAFC014B187010BD6027002010B50B4BC0
:10D730001B78002B07D0002806D100F09CFC08497C
:10D740000020FEF757F810BD00F0ADFC0022034B9F
:10D750005A7004490020FEF74DF8F4E760270020D6
:10D760007C340200643402000122014B5A7070477D
:10D7700060270020054B1878002805D05878C0B2E3
:10D78000002801D000225A707047C0466027002050
:10D7900010B5FFF7EFFF002800D110BD00F052FDDB
:10D7A000431E9841C0B2F8E770B586B001000E4B39
:10D7B000186068460D4B6A4670CB70C270CB70C261
:10D7C000FCF7E8FC002300280AD1A023DB05032195
:10D7D000074A995080210906A122D20099500123BD
:10D7E000180006B070BDC0466427002094340200C3
:10D7F0007C070000022803D05022034B1A707047A8
:10D800002022014B1A70FAE76827002070B5334BCD
:10D810005870022826D0032813D00124012801D0F3
:10D82000200070BD00229A700124062500222900E4
:10D83000B82000F079FB04400135EDB2112DF5D18F
:10D84000EEE7274B1A78254B9A7001240625002213
:10D850002900B82000F068FB04400135EDB2112D1D
:10D86000F5D1DDE71E4B5A781C4B9A7000222C2113
:10D87000B82000F059FB040000222D21B82000F050
:10D8800053FB0440E4B200222E21B82000F04CFBF0
:10D89000044000222F21B82000F046FB0440002263
:10D8A0003021B82000F040FB044000223121B82094
:10D8B00000F03AFB044003220521B82000F034FBBD
:10D8C00004400625FF222900B82000F02DFB04406B
:10D8D0000135EDB2112DF5D1A2E7C0466827002031
:10D8E0006920002010B580214900A123DB00A0227F
:10D8F000D205D1500122FE39B82000F015FB0400FA
:10D9000001220521B82000F00FFB0440E4B2084BCF
:10D910009B68022B08D05022064B1A70054B587892
:10D92000FFF774FF200010BD2022024B1A70F5E7AC
:10D93000442D002068270020014B58787047C046CE
:10D9400068270020024B5870024B987001207047E6
:10D950006920002068270020024B1870024B987045
:10D96000012070476920002068270020F0B583B0AF
:10D970000E000023512802D9180003B0F0BD6B46F9
:10D98000DD1D00232B706F38C4B201332A00210043
:10D99000B82000F059FA07002A7832432100B82055
:10D9A00000F0C2FA3840C3B2024A5670024A96707A
:10D9B000E2E7C046692000206827002010B5002358
:10D9C000512809D8002909D10A4B9A786F38C1B279
:10D9D000B82000F0A9FA0300180010BD054B1A7812
:10D9E0009B781A436F38C1B2B82000F09DFA03004B
:10D9F000F2E7C04668270020F8B50700002401269A
:10DA000015E00021FFF7DAFF502C14D80135631C14
:10DA1000DBB2082D0AD01C00601EC0B23B782B413F
:10DA20001E42EED03100FFF7C9FFEDE701370134A8
:10DA3000E4B20025F0E70120F8BD10B5002351281D
:10DA400001D9180010BD054B9A780A436F38C1B24E
:10DA5000B82000F069FA0300F3E7C0466827002009
:10DA600010B591214C1CE4B20022B82000F05CFA01
:10DA70002100E22CF6D1012010BD10B591214C1CE3
:10DA8000E4B2F022B82000F04FFA2100E22CF6D1E7
:10DA9000012010BD70B5050040214C1CE4B22A00E5
:10DAA000B82000F041FA2100912CF6D1012070BD80
:10DAB00010B50023512801D9180010BD4030C0B264
:10DAC0000A000100B82000F02FFA0300F4E7F0B5D7
:10DAD000CE4600B582B081464B0801930024012751
